:060000000A128A11FC2F18
:100E280005307007F200F301F30D72088400831790
:100E3800731C831300080139F400F5017408F000ED
:100E48007508F1000800F301F401452FF501F601DA
:100E58000130F5070318F60A0030F6077608803ADD
:100E6800FF0080307F02031D3B2F50307502031CAA
:100E78003E2F3F2F2C2F0130F3070318F40A0030C0
:100E8800F4077408803AF2007108803A7202031D70
:100E98004F2F70087302031C522F532F2A2F08005C
:100EA800F5007103031D592F5A2F702F85307007D5
:100EB800F200F301F30D720884008317731C831387
:100EC8000130F400750A6A2F0310F40DFF3E031D6C
:100ED800682F740880048B2F7108031D742F752FD9
:100EE8008B2F85307007F200F301F30D7208840030
:100EF8008317731C83130130F400750A852F0310C0
:100F0800F40DFF3E031D832F7408FF3A8005080087
:100F1800F5007103031D912F922FA82F053070073C
:100F2800F200F301F30D720884008317731C831316
:100F38000130F400750AA22F0310F40DFF3E031DC3
:100F4800A02F74088004C32F7108031DAC2FAD2F88
:100F5800C32F05307007F200F301F30D7208840007
:100F68008317731C83130130F400750ABD2F031017
:100F7800F40DFF3E031DBB2F7408FF3A80050800DF
:100F8800F001F00AF10101300A128A1154270A12FD
:100F98008A11F001F00AF101F10A02300A128A11ED
:100FA80054270A128A11F001F00A02300A128A1133
:100FB80014270A128A1170087104031DE42FE52F03
:100FC800EF2FF001F00AF101F10A01300A128A113B
:100FD8008C270A128A11E830F0000330F1000A1257
:100FE8008A1127270A128A11CD2F0A128A1100287E
:080FF80083010A128A11C42FC3
:08400000FF3FFF3FFF3FFF3FC0
:02400E00393F38
:00000001FF
