:060000000A128A11FC2F18
:100AB800F301F4017A2DF501F6010130F507031869
:100AC800F60A0030F6077608803AFF0080307F0289
:100AD800031D702D50307502031C732D742D612D6C
:100AE8000130F3070318F40A0030F4077408803A59
:100AF800F2007108803A7202031D842D7008730297
:100B0800031C872D882D5F2D080083160313070803
:100B1800F73987000708FB3987000708FD39870080
:100B28000608203886000130F8000030F9008312EA
:100B380003130608F70005300310F70CFF3E031DEA
:100B4800A02D7718A82DA92D9B2DD32D831603131F
:100B58000708F73987000708FB3987000708FD39B8
:100B68008700FA30F0000030F1000A128A115C2583
:100B78000A128A11831203130608F70005300310BE
:100B8800F70CFF3E031DC32D7718CB2DCC2DD32D8D
:100B98000130F8070318F90A0030F907152E780311
:100BA80079040319D82DD92DAA2D152EFA30F00065
:100BB8000030F1000A128A115C250A128A11831288
:100BC8000313070808388700070804388700070850
:100BD80002388700FA30F0000030F1000A128A115A
:100BE8005C250A128A11831203130708F739870054
:100BF8000708FB3987000708FD3987000608F70052
:100C080005300310F70CFF3E031D052E77180D2E37
:100C18000E2E152E0130F8070318F90A0030F907CF
:100C28001C2E02307806790403191B2E1C2EDA2D8F
:100C3800FA30F0000030F1000A128A115C250A121D
:100C48008A11792E83120313070808388700FA30AF
:100C5800F0000030F1000A128A115C250A128A118C
:100C680083120313070804388700FA30F0000030B5
:100C7800F1000A128A115C250A128A1183120313E1
:100C8800070802388700FA30F0000030F1000A1235
:100C98008A115C250A128A11831203130708F7398F
:100CA80087000708FB3987000708FD398700FA30F5
:100CB800F0000030F1000A128A115C250A128A112C
:100CC800831203130608F70005300310F70CFF3EE4
:100CD800031D692E7718712E722E792E0130F807B0
:100CE8000318F90A0030F907EA2E03307806790468
:100CF80003197F2E802E262EEA2E8312031307084F
:100D080008388700FA30F0000030F1000A128A1122
:100D18005C250A128A11831203130708F739870022
:100D2800FA30F0000030F1000A128A115C250A122C
:100D38008A1183120313070804388700FA30F00079
:100D48000030F1000A128A115C250A128A118312F6
:100D580003130708FB398700FA30F0000030F10070
:100D68000A128A115C250A128A11831203130708D2
:100D780002388700FA30F0000030F1000A128A11B8
:100D88005C250A128A11831203130708FD398700AC
:100D9800FA30F0000030F1000A128A115C250A12BC
:100DA8008A11831203130608F70005300310F70CA5
:100DB800FF3E031DDA2E7718E22EE32EEA2E0130CD
:100DC800F8070318F90A0030F9073A2F04307806B3
:100DD80079040319F02EF12E812E3A2F8312031372
:100DE800070808388700070802388700FA30F0003B
:100DF8000030F1000A128A115C250A128A11831246
:100E080003130708F73987000708FD398700070823
:100E180004388700FA30F0000030F1000A128A1115
:100E28005C250A128A11831203130708FB3987000D
:100E3800FA30F0000030F1000A128A115C250A121B
:100E48008A11831203130608F70005300310F70C04
:100E5800FF3E031D2A2F7718322F332F3A2F0130E8
:100E6800F8070318F90A0030F907F12F053078065A
:100E780079040319402F412FF22EF12F8312031307
:100E88000708F73987000708FB3987000708FD3985
:100E98008700F430F0000130F1000A128A115C2555
:100EA8000A128A11831203130708083887000708F3
:100EB800FB3987000708FD398700F430F00001305E
:100EC800F1000A128A115C250A128A11831203138F
:100ED8000708F73987000708043887000708FD392D
:100EE8008700F430F0000130F1000A128A115C2505
:100EF8000A128A11831203130708083887000708A3
:100F0800043887000708FD398700F430F000013005
:100F1800F1000A128A115C250A128A11831203133E
:100F28000708F73987000708FB39870007080238E0
:100F38008700F430F0000130F1000A128A115C25B4
:100F48000A128A1183120313070808388700070852
:100F5800FB398700070802388700F430F0000130B9
:100F6800F1000A128A115C250A128A1183120313EE
:100F78000708F73987000708043887000708023888
:100F88008700F430F0000130F1000A128A115C2564
:100F98000A128A1183120313070808388700070802
:100FA80004388700070802388700F430F000013061
:100FB800F1000A128A115C250A128A11831203139E
:100FC8000608F70005300310F70CFF3E031DE72F56
:100FD8007718EF2FF02FF12F972D06307806790428
:100FE8000319F72FF82F422F9B2D0A128A11002878
:080FF80083010A128A11892D00
:08400000FF3FFF3FFF3FFF3FC0
:02400E00B93FB8
:00000001FF
